{
  "transactions": [
    {
      "hash": "0x6beda30e986e6bf740b58a3b8ea0610b64298a6d115a4f50078b56d2aff9a6d2",
      "transactionType": "CALL",
      "contractName": null,
      "contractAddress": "0x779877a7b0d9e8603169ddbd7836e478b4624789",
      "function": "transferAndCall(address,uint256,bytes)",
      "arguments": [
        "0x9DdfaCa8183c41ad55329BdeeD9F6A8d53168B1B",
        "10000000000000000000",
        "0x9aab3c118d7ecbc74492762733304e9698f246660058dd36e19b29f8ba62fda7"
      ],
      "transaction": {
        "from": "0x3b38bd5073d675f29f6da8db60f0eeb2152e0438",
        "to": "0x779877a7b0d9e8603169ddbd7836e478b4624789",
        "gas": "0x1603d",
        "value": "0x0",
        "input": "0x4000aea00000000000000000000000009ddfaca8183c41ad55329bdeed9f6a8d53168b1b0000000000000000000000000000000000000000000000008ac7230489e80000000000000000000000000000000000000000000000000000000000000000006000000000000000000000000000000000000000000000000000000000000000209aab3c118d7ecbc74492762733304e9698f246660058dd36e19b29f8ba62fda7",
        "nonce": "0x14",
        "chainId": "0xaa36a7"
      },
      "additionalContracts": [],
      "isFixedGasLimit": false
    }
  ],
  "receipts": [
    {
      "status": "0x1",
      "cumulativeGasUsed": "0x84255f",
      "logs": [
        {
          "address": "0x779877a7b0d9e8603169ddbd7836e478b4624789",
          "topics": [
            "0xddf252ad1be2c89b69c2b068fc378daa952ba7f163c4a11628f55a4df523b3ef",
            "0x0000000000000000000000003b38bd5073d675f29f6da8db60f0eeb2152e0438",
            "0x0000000000000000000000009ddfaca8183c41ad55329bdeed9f6a8d53168b1b"
          ],
          "data": "0x0000000000000000000000000000000000000000000000008ac7230489e80000",
          "blockHash": "0x20fb667846a8f47f1c8b190f6f96b0bc4e1a24acf38bc906de05aa196c7be869",
          "blockNumber": "0x7cedbf",
          "blockTimestamp": "0x680a7500",
          "transactionHash": "0x6beda30e986e6bf740b58a3b8ea0610b64298a6d115a4f50078b56d2aff9a6d2",
          "transactionIndex": "0x41",
          "logIndex": "0x89",
          "removed": false
        },
        {
          "address": "0x779877a7b0d9e8603169ddbd7836e478b4624789",
          "topics": [
            "0xe19260aff97b920c7df27010903aeb9c8d2be5d310a2c67824cf3f15396e4c16",
            "0x0000000000000000000000003b38bd5073d675f29f6da8db60f0eeb2152e0438",
            "0x0000000000000000000000009ddfaca8183c41ad55329bdeed9f6a8d53168b1b"
          ],
          "data": "0x0000000000000000000000000000000000000000000000008ac7230489e80000000000000000000000000000000000000000000000000000000000000000004000000000000000000000000000000000000000000000000000000000000000209aab3c118d7ecbc74492762733304e9698f246660058dd36e19b29f8ba62fda7",
          "blockHash": "0x20fb667846a8f47f1c8b190f6f96b0bc4e1a24acf38bc906de05aa196c7be869",
          "blockNumber": "0x7cedbf",
          "blockTimestamp": "0x680a7500",
          "transactionHash": "0x6beda30e986e6bf740b58a3b8ea0610b64298a6d115a4f50078b56d2aff9a6d2",
          "transactionIndex": "0x41",
          "logIndex": "0x8a",
          "removed": false
        },
        {
          "address": "0x9ddfaca8183c41ad55329bdeed9f6a8d53168b1b",
          "topics": [
            "0x1ced9348ff549fceab2ac57cd3a9de38edaaab274b725ee82c23e8fc8c4eec7a",
            "0x9aab3c118d7ecbc74492762733304e9698f246660058dd36e19b29f8ba62fda7"
          ],
          "data": "0x0000000000000000000000000000000000000000000000008ac7230489e80000000000000000000000000000000000000000000000000001158e460913d00000",
          "blockHash": "0x20fb667846a8f47f1c8b190f6f96b0bc4e1a24acf38bc906de05aa196c7be869",
          "blockNumber": "0x7cedbf",
          "blockTimestamp": "0x680a7500",
          "transactionHash": "0x6beda30e986e6bf740b58a3b8ea0610b64298a6d115a4f50078b56d2aff9a6d2",
          "transactionIndex": "0x41",
          "logIndex": "0x8b",
          "removed": false
        }
      ],
      "logsBloom": "0x00000004000000000000000000000000000000000020000000000000020010000000000000000000000000000000000000000000000000000000000000000000000004000000000000000008000000000000000000000000200020000020000008010000000000000000000000000000000000000000000000000010000040000000000000000000000000010000800000000020000000000000000000000000000000000000000000000000010000004000000000000000000004000000000000000002000000000000000000000000000000000000000100000000000000000010000400000000800000000000000000000000000000000000000000000000",
      "type": "0x2",
      "transactionHash": "0x6beda30e986e6bf740b58a3b8ea0610b64298a6d115a4f50078b56d2aff9a6d2",
      "transactionIndex": "0x41",
      "blockHash": "0x20fb667846a8f47f1c8b190f6f96b0bc4e1a24acf38bc906de05aa196c7be869",
      "blockNumber": "0x7cedbf",
      "gasUsed": "0xf0d9",
      "effectiveGasPrice": "0x67b27ba15",
      "from": "0x3b38bd5073d675f29f6da8db60f0eeb2152e0438",
      "to": "0x779877a7b0d9e8603169ddbd7836e478b4624789",
      "contractAddress": null
    }
  ],
  "libraries": [],
  "pending": [],
  "returns": {},
  "timestamp": 1745515778,
  "chain": 11155111,
  "commit": "b8fef88"
}